{
  "_format": "hh-sol-artifact-1",
  "contractName": "PatientAdmit",
  "sourceName": "contracts/PatientAdmit.sol",
  "abi": [
    {
      "inputs": [
        {
          "internalType": "string",
          "name": "_name",
          "type": "string"
        }
      ],
      "name": "admitPatient",
      "outputs": [],
      "stateMutability": "nonpayable",
      "type": "function"
    },
    {
      "inputs": [],
      "name": "dischargePatient",
      "outputs": [],
      "stateMutability": "nonpayable",
      "type": "function"
    },
    {
      "inputs": [],
      "name": "getPatientName",
      "outputs": [
        {
          "internalType": "string",
          "name": "",
          "type": "string"
        }
      ],
      "stateMutability": "view",
      "type": "function"
    },
    {
      "inputs": [],
      "name": "isPatientAdmitted",
      "outputs": [
        {
          "internalType": "bool",
          "name": "",
          "type": "bool"
        }
      ],
      "stateMutability": "view",
      "type": "function"
    }
  ],
  "bytecode": "0x608060405234801561001057600080fd5b50610b77806100206000396000f3fe608060405234801561001057600080fd5b506004361061004c5760003560e01c8063870be7dd146100515780638e87de591461006f578063d5d9e9351461008b578063e0e54e1c146100a9575b600080fd5b6100596100b3565b60405161006691906108c4565b60405180910390f35b610089600480360381019061008491906107da565b610212565b005b610093610379565b6040516100a091906108a9565b60405180910390f35b6100b16103cf565b005b60606000803373ffffffffffffffffffffffffffffffffffffffff1673ffffffffffffffffffffffffffffffffffffffff16815260200190815260200160002060010160009054906101000a900460ff16610143576040517f08c379a000000000000000000000000000000000000000000000000000000000815260040161013a9061091d565b60405180910390fd5b6000803373ffffffffffffffffffffffffffffffffffffffff1673ffffffffffffffffffffffffffffffffffffffff168152602001908152602001600020600001805461018f90610a1d565b80601f01602080910402602001604051908101604052809291908181526020018280546101bb90610a1d565b80156102085780601f106101dd57610100808354040283529160200191610208565b820191906000526020600020905b8154815290600101906020018083116101eb57829003601f168201915b5050505050905090565b6000803373ffffffffffffffffffffffffffffffffffffffff1673ffffffffffffffffffffffffffffffffffffffff16815260200190815260200160002060010160009054906101000a900460ff16156102a1576040517f08c379a00000000000000000000000000000000000000000000000000000000081526004016102989061093d565b60405180910390fd5b6040518060400160405280828152602001600115158152506000803373ffffffffffffffffffffffffffffffffffffffff1673ffffffffffffffffffffffffffffffffffffffff168152602001908152602001600020600082015181600001908051906020019061031392919061068f565b5060208201518160010160006101000a81548160ff0219169083151502179055509050506103766040518060400160405280601481526020017f50617469656e742061646d69747465643a202573000000000000000000000000815250826105d2565b50565b60008060003373ffffffffffffffffffffffffffffffffffffffff1673ffffffffffffffffffffffffffffffffffffffff16815260200190815260200160002060010160009054906101000a900460ff16905090565b6000803373ffffffffffffffffffffffffffffffffffffffff1673ffffffffffffffffffffffffffffffffffffffff16815260200190815260200160002060010160009054906101000a900460ff1661045d576040517f08c379a00000000000000000000000000000000000000000000000000000000081526004016104549061091d565b60405180910390fd5b60008060003373ffffffffffffffffffffffffffffffffffffffff1673ffffffffffffffffffffffffffffffffffffffff16815260200190815260200160002060000180546104ab90610a1d565b80601f01602080910402602001604051908101604052809291908181526020018280546104d790610a1d565b80156105245780601f106104f957610100808354040283529160200191610524565b820191906000526020600020905b81548152906001019060200180831161050757829003601f168201915b505050505090506000803373ffffffffffffffffffffffffffffffffffffffff1673ffffffffffffffffffffffffffffffffffffffff1681526020019081526020016000206000808201600061057a9190610715565b6001820160006101000a81549060ff021916905550506105cf6040518060400160405280601681526020017f50617469656e7420646973636861726765643a20257300000000000000000000815250826105d2565b50565b61066a82826040516024016105e89291906108e6565b6040516020818303038152906040527f4b5c4277000000000000000000000000000000000000000000000000000000007bffffffffffffffffffffffffffffffffffffffffffffffffffffffff19166020820180517bffffffffffffffffffffffffffffffffffffffffffffffffffffffff838183161783525050505061066e565b5050565b60006a636f6e736f6c652e6c6f679050600080835160208501845afa505050565b82805461069b90610a1d565b90600052602060002090601f0160209004810192826106bd5760008555610704565b82601f106106d657805160ff1916838001178555610704565b82800160010185558215610704579182015b828111156107035782518255916020019190600101906106e8565b5b5090506107119190610755565b5090565b50805461072190610a1d565b6000825580601f106107335750610752565b601f0160209004906000526020600020908101906107519190610755565b5b50565b5b8082111561076e576000816000905550600101610756565b5090565b600061078561078084610982565b61095d565b90508281526020810184848401111561079d57600080fd5b6107a88482856109db565b509392505050565b600082601f8301126107c157600080fd5b81356107d1848260208601610772565b91505092915050565b6000602082840312156107ec57600080fd5b600082013567ffffffffffffffff81111561080657600080fd5b610812848285016107b0565b91505092915050565b610824816109cf565b82525050565b6000610835826109b3565b61083f81856109be565b935061084f8185602086016109ea565b61085881610ade565b840191505092915050565b60006108706017836109be565b915061087b82610aef565b602082019050919050565b6000610893601b836109be565b915061089e82610b18565b602082019050919050565b60006020820190506108be600083018461081b565b92915050565b600060208201905081810360008301526108de818461082a565b905092915050565b60006040820190508181036000830152610900818561082a565b90508181036020830152610914818461082a565b90509392505050565b6000602082019050818103600083015261093681610863565b9050919050565b6000602082019050818103600083015261095681610886565b9050919050565b6000610967610978565b90506109738282610a4f565b919050565b6000604051905090565b600067ffffffffffffffff82111561099d5761099c610aaf565b5b6109a682610ade565b9050602081019050919050565b600081519050919050565b600082825260208201905092915050565b60008115159050919050565b82818337600083830152505050565b60005b83811015610a085780820151818401526020810190506109ed565b83811115610a17576000848401525b50505050565b60006002820490506001821680610a3557607f821691505b60208210811415610a4957610a48610a80565b5b50919050565b610a5882610ade565b810181811067ffffffffffffffff82111715610a7757610a76610aaf565b5b80604052505050565b7f4e487b7100000000000000000000000000000000000000000000000000000000600052602260045260246000fd5b7f4e487b7100000000000000000000000000000000000000000000000000000000600052604160045260246000fd5b6000601f19601f8301169050919050565b7f50617469656e74206973206e6f742061646d6974746564000000000000000000600082015250565b7f50617469656e7420697320616c72656164792061646d6974746564000000000060008201525056fea264697066735822122035713d962f7e69ca788c46183989a9f32a5276bd9f6df4c08d47263e0680036064736f6c63430008040033",
  "linkReferences": {},
  "deployedLinkReferences": {}
}